S20180319CARD_SALE                                                                                                                                                                                                                                                                                          
H사이트코드                                                                                                                                                                                                                                                                                                      
D2018030904225220180309042252STJY18318268169478      20180308D08618204000                                                  00002550000000059100000000000000005900000000000000000000002485020180309201803190000353424        CCDI                                                                            
D2018030904231820180309042318STJY18318268169715      20180308D08818204000                                                  00001530000000035400000000000000003500000000000000000000001491120180309201803190000289327        CCDI                                                                            
D2018030904294220180309042942STJY18318268174346      20180308CYR518194000                                                  00003060000000070900000000000000007100000000000000000000002982020180309201803190029739617        CCLG                                                                            
D2018030904295820180309042958STJY18318268174610      20180308CYT418194000                                                  00002040000000047300000000000000004700000000000000000000001988020180309201803190030029677        CCKM                                                                            
D2018030904301620180309043016STJY18318268175363      20180308CZU418194000                                                  00002040000000047300000000000000004700000000000000000000001988020180309201803190041615741        CCBC                                                                            
D2018030904303120180309043031STJY18318268175594      20180308D01218194000                                                  00002550000000059100000000000000005900000000000000000000002485020180309201803190041615792        CCBC                                                                            
D2018030904313120180309043131STJY18318268176627      20180308D11020997000                                                  00002200000000051000000000000000005100000000000000000000002143920180309201803190029750057        CCLG                                                                            
D2018030904322120180309043221STJY18318268177158      20180308CR7418194000                                                  00002040000000047300000000000000004700000000000000000000001988020180309201803190029749070        CCLG                                                                            
D2018030905105620180309051056STJY18318268204832      20180308D14920908000                                                  00002550000000059100000000000000005900000000000000000000002485020180309201803190029771069        CCLG                                                                            
D2018030905270520180309052705STJY18318268215555      20180308D22718048000                                                  00002040000000047300000000000000004700000000000000000000001988020180309201803190041638277        CCBC                                                                            
D2018030906445920180309064459STJY18318268274691      20180308D39120997000                                                  00002200000000051000000000000000005100000000000000000000002143920180309201803190041707441        CCBC                                                                            
D2018030906454620180309064546STJY18318268275575      20180308D37325246000                                                  00001530000000035400000000000000003500000000000000000000001491120180309201803190029849408        CCLG                                                                            
D2018030907274720180309072747STJY18318268336885      20180308D43820734000                                                  00001530000000035400000000000000003500000000000000000000001491120180309201803190007298596        CCKE                                                                            
D2018030908055920180309080559STJY18318268458479      20180309007819395000                                                  00001530000000035400000000000000003500000000000000000000001491120180309201803190030058081        CCLG                                                                            
D2018030908240120180309082401STJY18318268543634      20180309012409796000                                                  00003570000000082800000000000000008300000000000000000000003478920180309201803190030127183        CCLG                                                                            
D2018030910472120180309104721STJY18318269559793      20180309149718580000                                                  00002040000000047300000000000000004700000000000000000000001988020180309201803190042484216        CCBC                                                                            
D2018030913214320180309132143STJY18318270690412      20180309288918580000                                                  00004080000000094600000000000000009500000000000000000000003975920180309201803190030035886        CCKM                                                                            
D2018030913341920180309133419STJY18318270789831      20180309315822457000                                                  00003060000000070900000000000000007100000000000000000000002982020180309201803190043768607        CCBC                                                                            
D2018030913411720180309134117STJY18318270846215      20180309329318194000                                                  00001530000000035400000000000000003500000000000000000000001491120180309201803190030036947        CCKM                                                                            
D2018030913575920180309135759STJY18318270972918      20180309276727928000                                                  00001530000000035400000000000000003500000000000000000000001491120180309201803190009258660        CCKE                                                                            
D2018030914563320180309145633STJY18318271382802      20180309410219570000                                                  00005500000000127600000000000000012800000000000000000000005359620180309201803190032544008        CCKM                                                                            
D2018030915182620180309151826STJY18318271553349      20180309432222698000                                                  00138600000003215500000000000000321600000000000000000000135062920180309201803190086318949        CCSS                                                                            
D2018030915405220180309154052STJY18318271712517      20180309434927928000                                                  00004080000000094600000000000000009500000000000000000000003975920180309201803190002258069        CCKE                                                                            
D2018030915415620180309154156STJY18318271719714      20180309423427928000                                                  00002040000000047300000000000000004700000000000000000000001988020180309201803190006248669        CCKE                                                                            
D2018030915493320180309154933STJY18318271770353      20180309397727048001                                                  00003060000000070900000000000000007100000000000000000000002982020180309201803190096980963        CCSS                                                                            
D2018030917045920180309170459STJY18318272281184      20180309556107355000                                                  00013200000000306200000000000000030600000000000000000000012863220180309201803190034795423        CCLG                                                                            
D2018030917133820180309171338STJY18318272337030      20180309563024201000                                                  00004080000000094600000000000000009500000000000000000000003975920180309201803190008258382        CCKE                                                                            
D2018030917135620180309171356STJY18318272339171      20180309563224201000                                                  00004080000000094600000000000000009500000000000000000000003975920180309201803190046566274        CCBC                                                                            
D2018030918003320180309180033STJY18318272637134      20180309611713760000                                                  00002200000000051000000000000000005100000000000000000000002143920180309201803190046808368        CCBC                                                                            
D2018030918093120180309180931STJY18318272692469      20180309529418194000                                                  00004080000000094600000000000000009500000000000000000000003975920180309201803190046862511        CCBC                                                                            
D2018030918240420180309182404STJY18318272780588      20180309648019325000                                                  00002040000000047300000000000000004700000000000000000000001988020180309201803190046933767        CCBC                                                                            
D2018030918351320180309183513STJY18318272847722      20180309667319317000                                                  00007140000000165600000000000000016600000000000000000000006957820180309201803190047003259        CCBC                                                                            
D2018030918370020180309183700STJY18318272858047      20180309665318999000                                                  00001020000000023600000000000000002400000000000000000000000994020180309201803190035811172        CCLG                                                                            
D2018030918463620180309184636STJY18318272914468      20180309684918204000                                                  00004080000000094600000000000000009500000000000000000000003975920180309201803190000422565        CCDI                                                                            
D2018030919242720180309192427STJY18318273127306      20180309775522457000                                                  00001530000000035400000000000000003500000000000000000000001491120180309201803190030141888        CCKM                                                                            
D2018030919360020180309193600STJY18318273191888      20180309772626181000                                                  00001000000000023200000000000000002300000000000000000000000974520180309201803190056891767        CCSS                                                                            
D2018030919371820180309193718STJY18318273198988      20180309814428363000                                                  00002200000000051000000000000000005100000000000000000000002143920180309201803190030000371        CCNH                                                                            
D2018030919424820180309194248STJY18318273228863      20180309833016518000                                                  00001224000000028300000000000000002800000000000000000000001192920180309201803190047390146        CCBC                                                                            
D2018030919432820180309194328STJY18318273232501      20180309832816518000                                                  00001224000000028300000000000000002800000000000000000000001192920180309201803190047379725        CCBC                                                                            
D2018030919475620180309194756STJY18318273257476      20180309864705945000                                                  00008800000000204100000000000000020400000000000000000000008575520180309201803190006268483        CCKE                                                                            
D2018030919545620180309195456STJY18318273297465      20180309895500373000                                                  00000510000000011800000000000000001200000000000000000000000497020180309201803190006218189        CCKE                                                                            
D2018030920133120180309201331STJY18318273404588      20180309859018194000                                                  00002040000000047300000000000000004700000000000000000000001988020180309201803190047590612        CCBC                                                                            
D2018030920232320180309202323STJY18318273462838      20180309A23728541000                                                  00001500000000034800000000000000003500000000000000000000001461720180309201803190037008527        CCLG                                                                            
D2018030920244220180309202442STJY18318273470828      20180309A71708360000                                                  00003060000000070900000000000000007100000000000000000000002982020180309201803190047638880        CCBC                                                                            
D2018030920310220180309203102STJY18318273509962      20180309AAH205664000                                                  00010200000000236600000000000000023700000000000000000000009939720180309201803190030128006        CCKM                                                                            
D2018030920322320180309203223STJY18318273518793      20180309963418971000                                                  00001530000000035400000000000000003500000000000000000000001491120180309201803190030060632        CCKM                                                                            
D2018030920392720180309203927STJY18318273563322      20180309965418194000                                                  00002040000000047300000000000000004700000000000000000000001988020180309201803190047715022        CCBC                                                                            
D2018030920401420180309204014STJY18318273568691      20180309ABG924201000                                                  00002550000000059100000000000000005900000000000000000000002485020180309201803190047724846        CCBC                                                                            
D2018030920435920180309204359STJY18318273591653      20180309A94922553000                                                  00001224000000028300000000000000002800000000000000000000001192920180309201803190031625260        CCAM                                                                            
D2018030920451120180309204511STJY18318273599187      20180309995818194000                                                  00002040000000047300000000000000004700000000000000000000001988020180309201803190047738613        CCBC                                                                            
D2018030920481820180309204818STJY18318273618613      20180309AAN300759000                                                  00002550000000059100000000000000005900000000000000000000002485020180309201803190047763961        CCBC                                                                            
D2018030920493820180309204938STJY18318273626870      20180309AAN620758000                                                  00002500000000058000000000000000005800000000000000000000002436220180309201803190000091577        CCDI                                                                            
D2018030920502920180309205029STJY18318273632826      20180309AFD019570000                                                  00009350000000216900000000000000021700000000000000000000009111420180309201803190030064257        CCKM                                                                            
D2018030920503320180309205033STJY18318273633241      20180309A70704019000                                                  00002550000000059100000000000000005900000000000000000000002485020180309201803190047769293        CCBC                                                                            
D2018030920592420180309205924STJY18318273687640      20180309AH4705297003                                                  00002750000000063800000000000000006400000000000000000000002679820180309201803190036928675        CCKE                                                                            
D2018030921003620180309210036STJY18318273695393      20180309AI5427784000                                                  00006528000000151400000000000000015100000000000000000000006361520180309201803190047822592        CCBC                                                                            
D2018030921005220180309210052STJY18318273697407      20180309AAG524201000                                                  00006120000000141900000000000000014200000000000000000000005963920180309201803190002288286        CCKE                                                                            
D2018030921025120180309210251STJY18318273710090      20180309AIY804779000                                                  00002550000000059100000000000000005900000000000000000000002485020180309201803190039670802        CCAM                                                                            
D2018030921051620180309210516STJY18318273725083      20180309AE6323462000                                                  00001650000000038200000000000000003800000000000000000000001608020180309201803190047835416        CCBC                                                                            
D2018030921070020180309210700STJY18318273735594      20180309AK2418204000                                                  00011730000000272100000000000000027200000000000000000000011430720180309201803190047847332        CCBC                                                                            
D2018030921083720180309210837STJY18318273746271      20180309AKQ218204000                                                  00005100000000118300000000000000011800000000000000000000004969920180309201803190047853018        CCBC                                                                            
D2018030921085420180309210854STJY18318273748181      20180309AKR608360000                                                  00001836000000042500000000000000004300000000000000000000001789220180309201803190037464084        CCLG                                                                            
D2018030921090620180309210906STJY18318273749825      20180309AKU722457000                                                  00001530000000035400000000000000003500000000000000000000001491120180309201803190047854111        CCBC                                                                            
D2018030921092220180309210922STJY18318273751714      20180309A69322556000                                                  00003060000000070900000000000000007100000000000000000000002982020180309201803190030091919        CCKM                                                                            
D2018030921105920180309211059STJY18318273761845      20180309ALG218194000                                                  00001020000000023600000000000000002400000000000000000000000994020180309201803190047858551        CCBC                                                                            
D2018030921131120180309211311STJY18318273776069      20180309AAV118194000                                                  00003570000000082800000000000000008300000000000000000000003478920180309201803190047873552        CCBC                                                                            
D2018030921140820180309211408STJY18318273781955      20180309AGM105422000                                                  00001530000000035400000000000000003500000000000000000000001491120180309201803190030000112        CCNH                                                                            
D2018030921144220180309211442STJY18318273785632      20180309AH2322571000                                                  00001530000000035400000000000000003500000000000000000000001491120180309201803190030000068        CCNH                                                                            
D2018030921150020180309211500STJY18318273787612      20180309AKQ628043000                                                  00001100000000025500000000000000002600000000000000000000001071920180309201803190037513754        CCLG                                                                            
D2018030921164120180309211641STJY18318273798432      20180309AN4704779000                                                  00001530000000035400000000000000003500000000000000000000001491120180309201803190008579755        CCSS                                                                            
D2018030921164920180309211649STJY18318273799060      20180309AKH420384000                                                  00001530000000035400000000000000003500000000000000000000001491120180309201803190076479381        CCSS                                                                            
D2018030921170820180309211708STJY18318273801204      20180309AN8004779000                                                  00001530000000035400000000000000003500000000000000000000001491120180309201803190037534144        CCLG                                                                            
D2018030921172020180309211720STJY18318273802461      20180309ALS112832000                                                  00001020000000023600000000000000002400000000000000000000000994020180309201803190047901206        CCBC                                                                            
D2018030921202220180309212022STJY18318273824393      20180309AO4126763000                                                  00001530000000035400000000000000003500000000000000000000001491120180309201803190037559645        CCLG                                                                            
D2018030921203720180309212037STJY18318273825921      20180309A92805422000                                                  00002040000000047300000000000000004700000000000000000000001988020180309201803190030000114        CCNH                                                                            
D2018030921212120180309212121STJY18318273831092      20180309959928036000                                                  00004950000000114800000000000000011500000000000000000000004823720180309201803190030008095        CCKM                                                                            
D2018030921221520180309212215STJY18318273836875      20180309AOV122457000                                                  00003060000000070900000000000000007100000000000000000000002982020180309201803190030069164        CCKM                                                                            
D2018030921262720180309212627STJY18318273862913      20180309AH8028274000                                                  00002530000000058600000000000000005900000000000000000000002465520180309201803190030017372        CCKM                                                                            
D2018030921263820180309212638STJY18318273864203      20180309AGA113748000                                                  00003570000000082800000000000000008300000000000000000000003478920180309201803190047942126        CCBC                                                                            
D2018030921290620180309212906STJY18318273880627      20180309AQQ524201000                                                  00008160000000189300000000000000018900000000000000000000007951820180309201803190030009926        CCNH                                                                            
D2018030921293220180309212932STJY18318273883402      20180309AKR913746002                                                  00002040000000047300000000000000004700000000000000000000001988020180309201803190047948812        CCBC                                                                            
D2018030921310620180309213106STJY18318273894453      20180309APY422228000                                                  00001020000000023600000000000000002400000000000000000000000994020180309201803190030007095        CCNH                                                                            
D2018030921323320180309213233STJY18318273903928      20180309AG4320154000                                                  00003060000000070900000000000000007100000000000000000000002982020180309201803190003298017        CCKE                                                                            
D2018030921324920180309213249STJY18318273905388      20180309AH9420756000                                                  00002040000000047300000000000000004700000000000000000000001988020180309201803190030075002        CCKM                                                                            
D2018030921330020180309213300STJY18318273906545      20180309ASF108360000                                                  00004080000000094600000000000000009500000000000000000000003975920180309201803190091346725        CCSS                                                                            
D2018030921331120180309213311STJY18318273907924      20180309ABF128046000                                                  00003300000000076500000000000000007700000000000000000000003215820180309201803190030000635        CCNH                                                                            
D2018030921341220180309213412STJY18318273914535      20180309AQ9125199000                                                  00003060000000070900000000000000007100000000000000000000002982020180309201803190047969275        CCBC                                                                            
D2018030921342020180309213420STJY18318273915367      20180309AOI508206000                                                  00003000000000069600000000000000007000000000000000000000002923420180309201803190086390500        CCSS                                                                            
D2018030921373820180309213738STJY18318273937448      20180309AMG016518000                                                  00001530000000035400000000000000003500000000000000000000001491120180309201803190030053197        CCKM                                                                            
D2018030921375020180309213750STJY18318273938748      20180309AJK618194000                                                  00002550000000059100000000000000005900000000000000000000002485020180309201803190021340410        CCAM                                                                            
D2018030816450920180308164509STJY18697264382163      20180308550818194000                                                  00002040000000047300000000000000004700000000000000000000001988020180308201803190009288754        CCKE                                                                            
D2018030816454820180308164548STJY18697264386859      20180308487318194000                                                  00002550000000059100000000000000005900000000000000000000002485020180308201803190025510477        CCLG                                                                            
D2018030817072120180308170721STJY18697264536232      20180308572427928002                                                  00002040000000047300000000000000004700000000000000000000001988020180308201803190023872236        CCAM                                                                            
D2018030817531820180308175318STJY18697264869431      20180308592719002000                                                  00002550000000059100000000000000005900000000000000000000002485020180308201803190039723224        CCBC                                                                            
D2018030818335020180308183350STJY18697265136321      20180308661108835000                                                  00003060000000070900000000000000007100000000000000000000002982020180308201803190015390225        CCSS                                                                            
D2018030818560620180308185606STJY18697265272696      20180308723008835000                                                  00001020000000023600000000000000002400000000000000000000000994020180308201803190007047328        CCSS                                                                            
D2018030819211320180308192113STJY18697265426057      20180308794119863000                                                  00004950000000114800000000000000011500000000000000000000004823720180308201803190027162505        CCLG                                                                            
D2018030819243320180308192433STJY18697265447041      20180308760620936000                                                  00001530000000035400000000000000003500000000000000000000001491120180308201803190034018496        CCKE                                                                            
D2018030819244820180308192448STJY18697265448819      20180308761020936000                                                  00003060000000070900000000000000007100000000000000000000002982020180308201803190016513556        CCKE                                                                            
D2018030819250320180308192503STJY18697265450504      20180308761620936000                                                  00004080000000094600000000000000009500000000000000000000003975920180308201803190028168769        CCKE                                                                            
D2018030819261120180308192611STJY18697265457109      20180308782220758000                                                  00002500000000058000000000000000005800000000000000000000002436220180308201803190000838024        CCDI                                                                            
D2018030819274820180308192748STJY18697265467115      20180308778618194000                                                  00003060000000070900000000000000007100000000000000000000002982020180308201803190031546196        CCSS                                                                            
D2018030819354620180308193546STJY18697265517076      20180308673118194000                                                  00002040000000047300000000000000004700000000000000000000001988020180308201803190040266789        CCBC                                                                            
D2018030819482620180308194826STJY18697265596161      20180308908108360000                                                  00004590000000106400000000000000010600000000000000000000004473020180308201803190040356680        CCBC                                                                            
D2018030819485620180308194856STJY18697265599177      20180308909914549000                                                  00005018400000116400000000000000011600000000000000000000004890420180308201803190030000439        CCNH                                                                            
D2018030819490420180308194904STJY18697265599973      20180308910220971000                                                  00005500000000127600000000000000012800000000000000000000005359620180308201803190030036567        CCKM                                                                            
D2018030819520720180308195207STJY18697265619338      20180308839720908000                                                  00001020000000023600000000000000002400000000000000000000000994020180308201803190030021575        CCKM                                                                            
D2018030819560220180308195602STJY18697265644325      20180308946004104000                                                  00002000000000046400000000000000004600000000000000000000001949020180308201803190040401846        CCBC                                                                            
D2018030820074820180308200748STJY18697265718161      20180308819310263000                                                  00003060000000070900000000000000007100000000000000000000002982020180308201803190030018133        CCKM                                                                            
D2018030820081820180308200818STJY18697265721518      20180308A18527536000                                                  00001000000000023200000000000000002300000000000000000000000974520180308201803190027635320        CCLG                                                                            
D2018030820093820180308200938STJY18697265729945      20180308991708360000                                                  00001836000000042500000000000000004300000000000000000000001789220180308201803190030058027        CCKM                                                                            
D2018030820094920180308200949STJY18697265731144      20180308A27708360000                                                  00002550000000059100000000000000005900000000000000000000002485020180308201803190000380403        CCDI                                                                            
D2018030820102820180308201028STJY18697265735724      20180308944320929000                                                  00002040000000047300000000000000004700000000000000000000001988020180308201803190027665156        CCLG                                                                            
D2018030820112520180308201125STJY18697265741752      20180308799818194000                                                  00001530000000035400000000000000003500000000000000000000001491120180308201803190027659005        CCLG                                                                            
D2018030820141920180308201419STJY18697265760216      20180308943228043000                                                  00001320000000030600000000000000003100000000000000000000001286320180308201803190030000150        CCNH                                                                            
D2018030820164720180308201647STJY18697265776280      20180308928528017000                                                  00001100000000025500000000000000002600000000000000000000001071920180308201803190027722443        CCLG                                                                            
D2018030820180620180308201806STJY18697265784720      20180308954628036000                                                  00001980000000045900000000000000004600000000000000000000001929520180308201803190030011502        CCKM                                                                            
D2018030820240920180308202409STJY18697265824709      20180308A41618194000                                                  00001224000000028300000000000000002800000000000000000000001192920180308201803190040525240        CCBC                                                                            
D2018030820254820180308202548STJY18697265836111      20180308ABE913713000                                                  00001100000000025500000000000000002600000000000000000000001071920180308201803190000107966        CCDI                                                                            
D2018030820260620180308202606STJY18697265838146      20180308A96904019000                                                  00002550000000059100000000000000005900000000000000000000002485020180308201803190040529481        CCBC                                                                            
D2018030820262820180308202628STJY18697265840886      20180308ABN208360000                                                  00003060000000070900000000000000007100000000000000000000002982020180308201803190030000624        CCNH                                                                            
D2018030820302120180308203021STJY18697265868323      20180308AAK928502000                                                  00001100000000025500000000000000002600000000000000000000001071920180308201803190040548745        CCBC                                                                            
D2018030820310820180308203108STJY18697265873705      20180308ACM318204000                                                  00003060000000070900000000000000007100000000000000000000002982020180308201803190040552277        CCBC                                                                            
D2018030820322720180308203227STJY18697265882545      20180308A46618204000                                                  00001530000000035400000000000000003500000000000000000000001491120180308201803190040555121        CCBC                                                                            
D2018030820325420180308203254STJY18697265885737      20180308ACV613481001                                                  00001020000000023600000000000000002400000000000000000000000994020180308201803190064531120        CCSS                                                                            
D2018030820344020180308203440STJY18697265897565      20180308892018194000                                                  00003570000000082800000000000000008300000000000000000000003478920180308201803190030062895        CCKM                                                                            
D2018030820345820180308203458STJY18697265899721      20180308A27218194000                                                  00003570000000082800000000000000008300000000000000000000003478920180308201803190030053061        CCKM                                                                            
D2018030820353120180308203531STJY18697265903644      20180308ACR108360000                                                  00001530000000035400000000000000003500000000000000000000001491120180308201803190030007113        CCKM                                                                            
D2018030820375920180308203759STJY18697265920535      20180308ABU419002000                                                  00002000000000046400000000000000004600000000000000000000001949020180308201803190000801030        CCDI                                                                            
D2018030820380720180308203807STJY18697265921394      20180308847318194000                                                  00002550000000059100000000000000005900000000000000000000002485020180308201803190030075149        CCKM                                                                            
D2018030820383920180308203839STJY18697265924993      20180308A31518194000                                                  00003060000000070900000000000000007100000000000000000000002982020180308201803190009238565        CCKE                                                                            
D2018030820390520180308203905STJY18697265927820      20180308A73918194000                                                  00003570000000082800000000000000008300000000000000000000003478920180308201803190030001070        CCNH                                                                            
D2018030820410220180308204102STJY18697265941033      20180308A86320661000                                                  00003570000000082800000000000000008300000000000000000000003478920180308201803190040601825        CCBC                                                                            
D2018030820464220180308204642STJY18697265981800      20180308AGS527928000                                                  00001020000000023600000000000000002400000000000000000000000994020180308201803190040623965        CCBC                                                                            
D2018030820480520180308204805STJY18697265991472      20180308AH8400373000                                                  00001020000000023600000000000000002400000000000000000000000994020180308201803190040626856        CCBC                                                                            
D2018030820483420180308204834STJY18697265995007      20180308AHD800373000                                                  00001530000000035400000000000000003500000000000000000000001491120180308201803190040627871        CCBC                                                                            
D2018030820503720180308205037STJY18697266008733      20180308ADJ508866000                                                  00001020000000023600000000000000002400000000000000000000000994020180308201803190028016209        CCLG                                                                            
D2018030820515520180308205155STJY18697266018244      20180308AAW628043000                                                  00002200000000051000000000000000005100000000000000000000002143920180308201803190040636427        CCBC                                                                            
D2018030820530720180308205307STJY18697266026720      20180308ACH518194000                                                  00002040000000047300000000000000004700000000000000000000001988020180308201803190040647129        CCBC                                                                            
D2018030820531120180308205311STJY18697266027260      20180308AHA800225000                                                  00004590000000106400000000000000010600000000000000000000004473020180308201803190001238013        CCKE                                                                            
D2018030820543920180308205439STJY18697266037531      20180308ACL418194000                                                  00001530000000035400000000000000003500000000000000000000001491120180308201803190030053072        CCKM                                                                            
D2018030820550420180308205504STJY18697266040492      20180308AF9724201000                                                  00001224000000028300000000000000002800000000000000000000001192920180308201803190030008015        CCKM                                                                            
D2018030820552620180308205526STJY18697266043198      20180308AJD504779000                                                  00001530000000035400000000000000003500000000000000000000001491120180308201803190028057392        CCLG                                                                            
D2018030820582820180308205828STJY18697266066694      20180308ACU118194000                                                  00002550000000059100000000000000005900000000000000000000002485020180308201803190028090729        CCLG                                                                            
D2018030821000520180308210005STJY18697266078699      20180308AHC918204000                                                  00001530000000035400000000000000003500000000000000000000001491120180308201803190028097779        CCLG                                                                            
D2018030821005320180308210053STJY18697266084511      20180308AFH009325000                                                  00001200000000027800000000000000002800000000000000000000001169420180308201803190000131735        CCDI                                                                            
D2018030821060520180308210605STJY18697266123360      20180308AMM308360000                                                  00003060000000070900000000000000007100000000000000000000002982020180308201803190030013219        CCKM                                                                            
D2018030821062920180308210629STJY18697266126686      20180308AG2212638000                                                  00003060000000070900000000000000007100000000000000000000002982020180308201803190030010020        CCKM                                                                            
D2018030821063320180308210633STJY18697266127171      20180308AKZ208828000                                                  00001020000000023600000000000000002400000000000000000000000994020180308201803190040705359        CCBC                                                                            
D2018030821063820180308210638STJY18697266127861      20180308AM7508360000                                                  00004080000000094600000000000000009500000000000000000000003975920180308201803190040705525        CCBC                                                                            
D2018030821070120180308210701STJY18697266130528      20180308AJ7625247000                                                  00001530000000035400000000000000003500000000000000000000001491120180308201803190040697776        CCBC                                                                            
D2018030821072620180308210726STJY18697266133941      20180308AJ7725247000                                                  00001530000000035400000000000000003500000000000000000000001491120180308201803190040698668        CCBC                                                                            
D2018030821085220180308210852STJY18697266144327      20180308AEZ920917000                                                  00003000000000069600000000000000007000000000000000000000002923420180308201803190040720187        CCBC                                                                            
D2018030821085720180308210857STJY18697266144813      20180308AIL018194000                                                  00001530000000035400000000000000003500000000000000000000001491120180308201803190031340409        CCAM                                                                            
D2018030821090920180308210909STJY18697266146176      20180308ANL620368000                                                  00001500000000034800000000000000003500000000000000000000001461720180308201803190040720720        CCBC                                                                            
D2018030821160120180308211601STJY18697266196630      20180308AM3020908000                                                  00001530000000035400000000000000003500000000000000000000001491120180308201803190030021586        CCKM                                                                            
D2018030821193620180308211936STJY18697266223590      20180308ANH024201000                                                  00001224000000028300000000000000002800000000000000000000001192920180308201803190040762559        CCBC                                                                            
D2018030821195120180308211951STJY18697266225710      20180308AKS125247000                                                  00001224000000028300000000000000002800000000000000000000001192920180308201803190040763071        CCBC                                                                            
D2018030821212120180308212121STJY18697266236974      20180308AOY119658001                                                  00001000000000023200000000000000002300000000000000000000000974520180308201803190058620211        CCAM                                                                            
D2018030821220420180308212204STJY18697266242708      20180308ALS100759000                                                  00001224000000028300000000000000002800000000000000000000001192920180308201803190028271208        CCLG                                                                            
D2018030821224320180308212243STJY18697266247891      20180308AM9323893000                                                  00003850000000089300000000000000008900000000000000000000003751820180308201803190040769016        CCBC                                                                            
D2018030821230620180308212306STJY18697266251052      20180308AJK225247000                                                  00002550000000059100000000000000005900000000000000000000002485020180308201803190030139732        CCKM                                                                            
D2018030821232920180308212329STJY18697266254068      20180308ALQ422560000                                                  00002040000000047300000000000000004700000000000000000000001988020180308201803190040780572        CCBC                                                                            
D2018030821240320180308212403STJY18697266257940      20180308ANI205633000                                                  00003570000000082800000000000000008300000000000000000000003478920180308201803190003278459        CCKE                                                                            
D2018030821241920180308212419STJY18697266259717      20180308AED418194000                                                  00002550000000059100000000000000005900000000000000000000002485020180308201803190040782202        CCBC                                                                            
D2018030821245820180308212458STJY18697266264621      20180308AQD009326000                                                  00001000000000023200000000000000002300000000000000000000000974520180308201803190040783548        CCBC                                                                            
D2018030821252920180308212529STJY18697266268742      20180308ATD304779000                                                  00003060000000070900000000000000007100000000000000000000002982020180308201803190040776245        CCBC                                                                            
D2018030821261620180308212616STJY18697266274734      20180308ATI319570000                                                  00002750000000063800000000000000006400000000000000000000002679820180308201803190034270747        CCAM                                                                            
D2018030821262320180308212623STJY18697266275760      20180308ATR418204000                                                  00001020000000023600000000000000002400000000000000000000000994020180308201803190030008986        CCKM                                                                            
D2018030821262720180308212627STJY18697266276130      20180308AL4624201001                                                  00011730000000272100000000000000027200000000000000000000011430720180308201803190028305322        CCLG                                                                            
D2018030821275020180308212750STJY18697266286951      20180308AN6818194000                                                  00002040000000047300000000000000004700000000000000000000001988020180308201803190040789431        CCBC                                                                            
D2018030821281620180308212816STJY18697266290404      20180308AL6524201000                                                  00001224000000028300000000000000002800000000000000000000001192920180308201803190046844553        CCSS                                                                            
D2018030821292920180308212929STJY18697266299645      20180308ANG920374000                                                  00001224000000028300000000000000002800000000000000000000001192920180308201803190093595215        CCSS                                                                            
D2018030821302320180308213023STJY18697266306158      20180308ALP028043001                                                  00001650000000038200000000000000003800000000000000000000001608020180308201803190028334592        CCLG                                                                            
D2018030821305020180308213050STJY18697266309809      20180308AVF508360000                                                  00001530000000035400000000000000003500000000000000000000001491120180308201803190000897787        CCDI                                                                            
D2018030821313420180308213134STJY18697266315466      20180308ANX521320000                                                  00001020000000023600000000000000002400000000000000000000000994020180308201803190040798535        CCBC                                                                            
D2018030821314320180308213143STJY18697266316571      20180308ATB908902000                                                  00001100000000025500000000000000002600000000000000000000001071920180308201803190040807114        CCBC                                                                            
D2018030821324720180308213247STJY18697266324589      20180308AHP818194000                                                  00002040000000047300000000000000004700000000000000000000001988020180308201803190005016641        CCSS                                                                            
D2018030821325420180308213254STJY18697266325597      20180308AOR413713000                                                  00002750000000063800000000000000006400000000000000000000002679820180308201803190030000560        CCNH                                                                            
D2018030821343520180308213435STJY18697266338519      20180308AJ3918194000                                                  00002040000000047300000000000000004700000000000000000000001988020180308201803190068566679        CCSS                                                                            
D2018030921375720180309213757STJY18318273939729      20180309AMH816518000                                                  00003060000000070900000000000000007100000000000000000000002982020180309201803190030053209        CCKM                                                                            
D2018030921382120180309213821STJY18318273942060      20180309AO1218194000                                                  00001530000000035400000000000000003500000000000000000000001491120180309201803190044405400        CCSS                                                                            
D2018030921403220180309214032STJY18318273957293      20180309AUT218194000                                                  00001530000000035400000000000000003500000000000000000000001491120180309201803190030002158        CCNH                                                                            
D2018030921412320180309214123STJY18318273963258      20180309ARN324201000                                                  00001530000000035400000000000000003500000000000000000000001491120180309201803190048005435        CCBC                                                                            
D2018030921421820180309214218STJY18318273969322      20180309ARO324201000                                                  00001530000000035400000000000000003500000000000000000000001491120180309201803190048007376        CCBC                                                                            
D2018030921425320180309214253STJY18318273973529      20180309ASB528112000                                                  00003060000000070900000000000000007100000000000000000000002982020180309201803190030000507        CCNH                                                                            
D2018030921450620180309214506STJY18318273988178      20180309ATK324201000                                                  00002550000000059100000000000000005900000000000000000000002485020180309201803190068873530        CCSS                                                                            
D2018030921453520180309214535STJY18318273991321      20180309AWY018077000                                                  00001100000000025500000000000000002600000000000000000000001071920180309201803190030001206        CCNH                                                                            
D2018030921463020180309214630STJY18318273997176      20180309AQH612832000                                                  00001224000000028300000000000000002800000000000000000000001192920180309201803190048026645        CCBC                                                                            
D2018030921463420180309214634STJY18318273997653      20180309AXA400677000                                                  00001500000000034800000000000000003500000000000000000000001461720180309201803190004268526        CCKE                                                                            
D2018030921474020180309214740STJY18318274005038      20180309AXP100677000                                                  00003000000000069600000000000000007000000000000000000000002923420180309201803190030000812        CCNH                                                                            
D2018030921474420180309214744STJY18318274005490      20180309AUS819570000                                                  00002750000000063800000000000000006400000000000000000000002679820180309201803190061849691        CCSS                                                                            
D2018030921512220180309215122STJY18318274029861      20180309AYZ200677000                                                  00009000000000208800000000000000020900000000000000000000008770320180309201803190048047426        CCBC                                                                            
D2018030921523820180309215238STJY18318274038452      20180309AFM301420004                                                  00002550000000059100000000000000005900000000000000000000002485020180309201803190000183503        CCDI                                                                            
D2018030921530620180309215306STJY18318274041483      20180309AW6408849000                                                  00001020000000023600000000000000002400000000000000000000000994020180309201803190037844008        CCLG                                                                            
D2018030921533620180309215336STJY18318274044860      20180309AUN024201000                                                  00002550000000059100000000000000005900000000000000000000002485020180309201803190030000654        CCNH                                                                            
D2018030921535120180309215351STJY18318274046415      20180309AV9211412000                                                  00001100000000025500000000000000002600000000000000000000001071920180309201803190037850609        CCLG                                                                            
D2018030921543120180309215431STJY18318274051000      20180309APQ522571000                                                  00001224000000028300000000000000002800000000000000000000001192920180309201803190048056115        CCBC                                                                            
D2018030921543920180309215439STJY18318274051851      20180309B06408360000                                                  00004080000000094600000000000000009500000000000000000000003975920180309201803190051291637        CCSS                                                                            
D2018030921575020180309215750STJY18318274073039      20180309AQB528274000                                                  00001650000000038200000000000000003800000000000000000000001608020180309201803190037881186        CCLG                                                                            
D2018030921580520180309215805STJY18318274074922      20180309AQZ103495000                                                  00002550000000059100000000000000005900000000000000000000002485020180309201803190005248140        CCKE                                                                            
D2018030921585620180309215856STJY18318274080516      20180309AQZ203495000                                                  00002550000000059100000000000000005900000000000000000000002485020180309201803190006228142        CCKE                                                                            
D2018030921594420180309215944STJY18318274086343      20180309B73927774000                                                  00004400000000102000000000000000010200000000000000000000004287820180309201803190098717259        CCSS                                                                            
D2018030922005120180309220051STJY18318274094290      20180309B86100552000                                                  00002040000000047300000000000000004700000000000000000000001988020180309201803190030000208        CCNH                                                                            
D2018030922022020180309220220STJY18318274103473      20180309BA4100373000                                                  00002040000000047300000000000000004700000000000000000000001988020180309201803190048101038        CCBC                                                                            
D2018030922025720180309220257STJY18318274107840      20180309437618194000                                                  00004080000000094600000000000000009500000000000000000000003975920180309201803190048094222        CCBC                                                                            
D2018030922035620180309220356STJY18318274114017      20180309AT3818194000                                                  00003060000000070900000000000000007100000000000000000000002982020180309201803190037932792        CCLG                                                                            
D2018030922043420180309220434STJY18318274118518      20180309AR1822457000                                                  00004080000000094600000000000000009500000000000000000000003975920180309201803190048105942        CCBC                                                                            
D2018030922051620180309220516STJY18318274123158      20180309AX9022571000                                                  00002550000000059100000000000000005900000000000000000000002485020180309201803190006278873        CCKE                                                                            
D2018030922072720180309220727STJY18318274137285      20180309AZI808206006                                                  00002000000000046400000000000000004600000000000000000000001949020180309201803190030029753        CCKM                                                                            
D2018030922080420180309220804STJY18318274141419      20180309ANM620926000                                                  00002550000000059100000000000000005900000000000000000000002485020180309201803190048115292        CCBC                                                                            
D2018030922080820180309220808STJY18318274141783      20180309AYB308869000                                                  00001326000000030700000000000000003100000000000000000000001292220180309201803190008278170        CCKE                                                                            
D2018030922090120180309220901STJY18318274147644      20180309ARG317119000                                                  00002040000000047300000000000000004700000000000000000000001988020180309201803190048117274        CCBC                                                                            
D2018030922094920180309220949STJY18318274153098      20180309BCX122457000                                                  00001224000000028300000000000000002800000000000000000000001192920180309201803190030069175        CCKM                                                                            
D2018030922111520180309221115STJY18318274162555      20180309BCS916800000                                                  00002550000000059100000000000000005900000000000000000000002485020180309201803190048132026        CCBC                                                                            
D2018030922121520180309221215STJY18318274168780      20180309BD2318194000                                                  00001530000000035400000000000000003500000000000000000000001491120180309201803190000457057        CCDI                                                                            
D2018030922131420180309221314STJY18318274175726      20180309BCU428533000                                                  00001020000000023600000000000000002400000000000000000000000994020180309201803190030014454        CCKM                                                                            
D2018030922135820180309221358STJY18318274180384      20180309B95820758000                                                  00001530000000035400000000000000003500000000000000000000001491120180309201803190048137788        CCBC                                                                            
D2018030922142120180309221421STJY18318274182683      20180309AS5018194000                                                  00002550000000059100000000000000005900000000000000000000002485020180309201803190030002223        CCKM                                                                            
D2018030922142820180309221428STJY18318274183460      20180309BEM026766000                                                  00002200000000051000000000000000005100000000000000000000002143920180309201803190030001140        CCNH                                                                            
D2018030922143720180309221437STJY18318274184371      20180309AVT418194000                                                  00002040000000047300000000000000004700000000000000000000001988020180309201803190061555760        CCBC                                                                            
D2018030922145220180309221452STJY18318274185927      20180309B19824893000                                                  00002040000000047300000000000000004700000000000000000000001988020180309201803190063017571        CCSS                                                                            
D2018030922145620180309221456STJY18318274186397      20180309AUE128039001                                                  00001650000000038200000000000000003800000000000000000000001608020180309201803190038010381        CCLG                                                                            
D2018030922161720180309221617STJY18318274195818      20180309ATU518194000                                                  00002040000000047300000000000000004700000000000000000000001988020180309201803190048160700        CCBC                                                                            
D2018030922163220180309221632STJY18318274197393      20180309AUU218194000                                                  00003060000000070900000000000000007100000000000000000000002982020180309201803190038023198        CCLG                                                                            
D2018030922170120180309221701STJY18318274200828      20180309AUV618194000                                                  00002550000000059100000000000000005900000000000000000000002485020180309201803190038017361        CCLG                                                                            
D2018030922171320180309221713STJY18318274202075      20180309AY0918194000                                                  00002550000000059100000000000000005900000000000000000000002485020180309201803190030062930        CCKM                                                                            
D2018030922172720180309221727STJY18318274203621      20180309AYV218194000                                                  00001530000000035400000000000000003500000000000000000000001491120180309201803190007288892        CCKE                                                                            
D2018030922181420180309221814STJY18318274208699      20180309B00918194000                                                  00001530000000035400000000000000003500000000000000000000001491120180309201803190048164662        CCBC                                                                            
D2018030922182220180309221822STJY18318274209500      20180309AYC218194000                                                  00003570000000082800000000000000008300000000000000000000003478920180309201803190038031860        CCLG                                                                            
D2018030922185120180309221851STJY18318274212823      20180309751018194000                                                  00001530000000035400000000000000003500000000000000000000001491120180309201803190048157766        CCBC                                                                            
D2018030922193020180309221930STJY18318274217077      20180309BG6819596000                                                  00003060000000070900000000000000007100000000000000000000002982020180309201803190048167332        CCBC                                                                            
D2018030922194620180309221946STJY18318274218988      20180309BGG414549000                                                  00001224000000028300000000000000002800000000000000000000001192920180309201803190006218373        CCKE                                                                            
D2018030922195420180309221954STJY18318274220071      20180309B80718194000                                                  00002040000000047300000000000000004700000000000000000000001988020180309201803190046125197        CCAM                                                                            
D2018030922210720180309222107STJY18318274228125      20180309AKY200683000                                                  00003300000000076500000000000000007700000000000000000000003215820180309201803190048172522        CCBC                                                                            
D2018030922220020180309222200STJY18318274234047      20180309BCN522553000                                                  00001020000000023600000000000000002400000000000000000000000994020180309201803190063024261        CCAM                                                                            
D2018030922222020180309222220STJY18318274236407      20180309BHC518204000                                                  00001836000000042500000000000000004300000000000000000000001789220180309201803190048183166        CCBC                                                                            
D2018030922230520180309222305STJY18318274241205      20180309BCQ605277000                                                  00002550000000059100000000000000005900000000000000000000002485020180309201803190030004076        CCKM                                                                            
D2018030922234420180309222344STJY18318274245502      20180309BGD524201000                                                  00002550000000059100000000000000005900000000000000000000002485020180309201803190048185875        CCBC                                                                            
D2018030922235220180309222352STJY18318274246370      20180309BHU626766000                                                  00001100000000025500000000000000002600000000000000000000001071920180309201803190048178106        CCBC                                                                            
D2018030922235720180309222357STJY18318274246796      20180309BE0106034000                                                  00004080000000094600000000000000009500000000000000000000003975920180309201803190048178245        CCBC                                                                            
D2018030922240520180309222405STJY18318274247625      20180309BI0522457000                                                  00001530000000035400000000000000003500000000000000000000001491120180309201803190099980995        CCSS                                                                            
D2018030922321220180309223212STJY18318274302825      20180309BAG518194000                                                  00003060000000070900000000000000007100000000000000000000002982020180309201803190038125678        CCLG                                                                            
D2018030922321620180309223216STJY18318274303444      20180309BGV508851000                                                  00001020000000023600000000000000002400000000000000000000000994020180309201803190004925085        CCKE                                                                            
D2018030922332920180309223329STJY18318274310772      20180309BA9118194000                                                  00001224000000028300000000000000002800000000000000000000001192920180309201803190000526790        CCDI                                                                            
D2018030922340620180309223406STJY18318274314802      20180309BB7918194000                                                  00001530000000035400000000000000003500000000000000000000001491120180309201803190048218281        CCBC                                                                            
D2018030922351820180309223518STJY18318274322625      20180309BLJ022053000                                                  00001020000000023600000000000000002400000000000000000000000994020180309201803190000947017        CCDI                                                                            
D2018030922354120180309223541STJY18318274325206      20180309BFU608828000                                                  00001224000000028300000000000000002800000000000000000000001192920180309201803190002208561        CCKE                                                                            
D2018030922372420180309223724STJY18318274335966      20180309BMI608360000                                                  00002550000000059100000000000000005900000000000000000000002485020180309201803190001905727        CCSS                                                                            
D2018030922385320180309223853STJY18318274345468      20180309BMS713484000                                                  00001020000000023600000000000000002400000000000000000000000994020180309201803190030001427        CCNH                                                                            
D2018030922390220180309223902STJY18318274346403      20180309BN2904779000                                                  00007140000000165600000000000000016600000000000000000000006957820180309201803190030020277        CCKM                                                                            
D2018030922392120180309223921STJY18318274348508      20180309BN6304779000                                                  00001530000000035400000000000000003500000000000000000000001491120180309201803190091005061        CCSS                                                                            
D2018030922400820180309224008STJY18318274353944      20180309BN3528274000                                                  00001650000000038200000000000000003800000000000000000000001608020180309201803190030014333        CCKM                                                                            
D2018030922423420180309224234STJY18318274370428      20180309BIR122228000                                                  00001224000000028300000000000000002800000000000000000000001192920180309201803190038196365        CCLG                                                                            
D2018030922430920180309224309STJY18318274374123      20180309AZ1326723000                                                  00003570000000082800000000000000008300000000000000000000003478920180309201803190048263515        CCBC                                                                            
D2018030922431320180309224313STJY18318274374503      20180309BOG422457000                                                  00003060000000070900000000000000007100000000000000000000002982020180309201803190003238094        CCKE                                                                            
D2018030922432820180309224328STJY18318274376185      20180309BOJ522457000                                                  00004080000000094600000000000000009500000000000000000000003975920180309201803190008268291        CCKE                                                                            
D2018030922435720180309224357STJY18318274379331      20180309BL9419570000                                                  00002750000000063800000000000000006400000000000000000000002679820180309201803190048265050        CCBC                                                                            
D2018030922441620180309224416STJY18318274381406      20180309BFA128391000                                                  00002200000000051000000000000000005100000000000000000000002143920180309201803190030000114        CCNH                                                                            
D2018030922442420180309224424STJY18318274382274      20180309BOU322685000                                                  00001530000000035400000000000000003500000000000000000000001491120180309201803190057545581        CCSS                                                                            
D2018030922450020180309224500STJY18318274386128      20180309BF8700683000                                                  00002200000000051000000000000000005100000000000000000000002143920180309201803190048259068        CCBC                                                                            
D2018030922464720180309224647STJY18318274397762      20180309BLZ308849000                                                  00001020000000023600000000000000002400000000000000000000000994020180309201803190000777698        CCDI                                                                            
D2018030922472520180309224725STJY18318274401995      20180309BGG620154000                                                  00002550000000059100000000000000005900000000000000000000002485020180309201803190048281573        CCBC                                                                            
D2018030922475720180309224757STJY18318274405414      20180309BPQ122685000                                                  00001020000000023600000000000000002400000000000000000000000994020180309201803190048274681        CCBC                                                                            
D2018030922481920180309224819STJY18318274408059      20180309BQ6908360000                                                  00003060000000070900000000000000007100000000000000000000002982020180309201803190030000825        CCKM                                                                            
D2018030922490320180309224903STJY18318274412946      20180309BOE124201000                                                  00002040000000047300000000000000004700000000000000000000001988020180309201803190082041703        CCSS                                                                            
D2018030922491620180309224916STJY18318274414245      20180309BQI716800000                                                  00006120000000141900000000000000014200000000000000000000005963920180309201803190038235548        CCLG                                                                            
D2018030922511820180309225118STJY18318274427434      20180309BPH524201000                                                  00004080000000094600000000000000009500000000000000000000003975920180309201803190030007505        CCKM                                                                            
D2018030922514620180309225146STJY18318274430456      20180309BRC624633000                                                  00004080000000094600000000000000009500000000000000000000003975920180309201803190048291648        CCBC                                                                            
D2018030922515920180309225159STJY18318274431686      20180309BOY124201000                                                  00005610000000130100000000000000013000000000000000000000005466920180309201803190048300084        CCBC                                                                            
D2018030821350520180308213505STJY18697266342187      20180308AWV426650000                                                  00001200000000027800000000000000002800000000000000000000001169420180308201803190040823865        CCBC                                                                            
D2018030821352120180308213521STJY18697266344538      20180308AS0218194000                                                  00003060000000070900000000000000007100000000000000000000002982020180308201803190040816015        CCBC                                                                            
D2018030821352920180308213529STJY18697266345801      20180308ATS400759000                                                  00002550000000059100000000000000005900000000000000000000002485020180308201803190030004999        CCKM                                                                            
D2018030821365020180308213650STJY18697266356621      20180308ARA418194000                                                  00003570000000082800000000000000008300000000000000000000003478920180308201803190040827410        CCBC                                                                            
D2018030821365520180308213655STJY18697266357143      20180308AUG624201000                                                  00002550000000059100000000000000005900000000000000000000002485020180308201803190040819234        CCBC                                                                            
D2018030821370320180308213703STJY18697266358212      20180308AI7805954000                                                  00004400000000102000000000000000010200000000000000000000004287820180308201803190030000022        CCKM                                                                            
D2018030821375420180308213754STJY18697266364879      20180308AWS308360000                                                  00002040000000047300000000000000004700000000000000000000001988020180308201803190040831197        CCBC                                                                            
D2018030821381020180308213810STJY18697266366655      20180308ASQ519399000                                                  00003060000000070900000000000000007100000000000000000000002982020180308201803190040840019        CCBC                                                                            
D2018030821402020180308214020STJY18697266383661      20180308AWT608360000                                                  00003060000000070900000000000000007100000000000000000000002982020180308201803190040836092        CCBC                                                                            
D2018030821412720180308214127STJY18697266392492      20180308ATX625006000                                                  00002040000000047300000000000000004700000000000000000000001988020180308201803190000854143        CCDI                                                                            
D2018030821420320180308214203STJY18697266397664      20180308AWE409796000                                                  00001530000000035400000000000000003500000000000000000000001491120180308201803190028417337        CCLG                                                                            
D2018030821454320180308214543STJY18697266425453      20180308ABT500683000                                                  00002200000000051000000000000000005100000000000000000000002143920180308201803190040864908        CCBC                                                                            
D2018030821460020180308214600STJY18697266427479      20180308AN3800683000                                                  00002200000000051000000000000000005100000000000000000000002143920180308201803190040865454        CCBC                                                                            
D2018030821460420180308214604STJY18697266428034      20180308B24926650000                                                  00001000000000023200000000000000002300000000000000000000000974520180308201803190000708635        CCDI                                                                            
D2018030821463620180308214636STJY18697266432222      20180308B30322457000                                                  00002550000000059100000000000000005900000000000000000000002485020180308201803190030141811        CCKM                                                                            
D2018030821471220180308214712STJY18697266436927      20180308AQB918766003                                                  00003060000000070900000000000000007100000000000000000000002982020180308201803190040867837        CCBC                                                                            
D2018030821483720180308214837STJY18697266447349      20180308APC110745000                                                  00003060000000070900000000000000007100000000000000000000002982020180308201803190000991450        CCDI                                                                            
D2018030821493520180308214935STJY18697266454437      20180308ARO308851000                                                  00001326000000030700000000000000003100000000000000000000001292220180308201803190044197433        CCKE                                                                            
D2018030821494420180308214944STJY18697266455375      20180308B66024201000                                                  00002040000000047300000000000000004700000000000000000000001988020180308201803190044821186        CCAM                                                                            
D2018030821514620180308215146STJY18697266470286      20180308AET918194000                                                  00001530000000035400000000000000003500000000000000000000001491120180308201803190040878608        CCBC                                                                            
D2018030821515020180308215150STJY18697266470888      20180308B00308472000                                                  00002500000000058000000000000000005800000000000000000000002436220180308201803190030091837        CCKM                                                                            
D2018030821520820180308215208STJY18697266473016      20180308ANF118194000                                                  00003060000000070900000000000000007100000000000000000000002982020180308201803190030001770        CCNH                                                                            
D2018030821522320180308215223STJY18697266474811      20180308AIC318194000                                                  00001530000000035400000000000000003500000000000000000000001491120180308201803190028173059        CCKE                                                                            
D2018030821523520180308215235STJY18697266476518      20180308AIJ118194000                                                  00003060000000070900000000000000007100000000000000000000002982020180308201803190028489007        CCLG                                                                            
D2018030821524320180308215243STJY18697266477544      20180308AOU026181000                                                  00001500000000034800000000000000003500000000000000000000001461720180308201803190057122710        CCSS                                                                            
D2018030821525020180308215250STJY18697266478561      20180308AJ6618194000                                                  00001224000000028300000000000000002800000000000000000000001192920180308201803190030000202        CCNH                                                                            
D2018030821525420180308215254STJY18697266479144      20180308AXA722549000                                                  00002040000000047300000000000000004700000000000000000000001988020180308201803190028500167        CCLG                                                                            
D2018030821530220180308215302STJY18697266480265      20180308B64804600000                                                  00002040000000047300000000000000004700000000000000000000001988020180308201803190070015239        CCSS                                                                            
D2018030821535520180308215355STJY18697266487301      20180308BAW900677000                                                  00002000000000046400000000000000004600000000000000000000001949020180308201803190028503816        CCLG                                                                            
D2018030821535920180308215359STJY18697266487888      20180308BAZ126219000                                                  00001200000000027800000000000000002800000000000000000000001169420180308201803190009278072        CCKE                                                                            
D2018030821542220180308215422STJY18697266490688      20180308BB3520926000                                                  00003060000000070900000000000000007100000000000000000000002982020180308201803190030037374        CCKM                                                                            
D2018030821551020180308215510STJY18697266496983      20180308BBC600677000                                                  00001500000000034800000000000000003500000000000000000000001461720180308201803190040895207        CCBC                                                                            
D2018030821554620180308215546STJY18697266501382      20180308APB518999000                                                  00003060000000070900000000000000007100000000000000000000002982020180308201803190030000665        CCNH                                                                            
D2018030821560820180308215608STJY18697266503946      20180308BBJ126723000                                                  00003570000000082800000000000000008300000000000000000000003478920180308201803190040905091        CCBC                                                                            
D2018030821573520180308215735STJY18697266515075      20180308AW1324201000                                                  00003570000000082800000000000000008300000000000000000000003478920180308201803190040899896        CCBC                                                                            
D2018030821575420180308215754STJY18697266517329      20180308BC3100552000                                                  00002040000000047300000000000000004700000000000000000000001988020180308201803190030000448        CCNH                                                                            
D2018030821585520180308215855STJY18697266524745      20180308AXC924201000                                                  00005100000000118300000000000000011800000000000000000000004969920180308201803190028540773        CCLG                                                                            
D2018030822004020180308220040STJY18697266538164      20180308BD7000373000                                                  00002040000000047300000000000000004700000000000000000000001988020180308201803190040915845        CCBC                                                                            
D2018030822005620180308220056STJY18697266540211      20180308BCJ724201000                                                  00002040000000047300000000000000004700000000000000000000001988020180308201803190030000035        CCNH                                                                            
D2018030822041920180308220419STJY18697266566796      20180308AV7412661000                                                  00001650000000038200000000000000003800000000000000000000001608020180308201803190040940898        CCBC                                                                            
D2018030822042620180308220426STJY18697266567704      20180308BEF519570000                                                  00001650000000038200000000000000003800000000000000000000001608020180308201803190000271089        CCDI                                                                            
D2018030822043920180308220439STJY18697266569207      20180308BEI100373000                                                  00003060000000070900000000000000007100000000000000000000002982020180308201803190040933384        CCBC                                                                            
D2018030822050120180308220501STJY18697266572186      20180308AP1918194000                                                  00001530000000035400000000000000003500000000000000000000001491120180308201803190040934111        CCBC                                                                            
D2018030822051620180308220516STJY18697266574245      20180308BER522457000                                                  00002040000000047300000000000000004700000000000000000000001988020180308201803190028580141        CCLG                                                                            
D2018030822052420180308220524STJY18697266575509      20180308BA6309796000                                                  00001530000000035400000000000000003500000000000000000000001491120180308201803190028574756        CCLG                                                                            
D2018030822054020180308220540STJY18697266577598      20180308ATP523462000                                                  00004400000000102000000000000000010200000000000000000000004287820180308201803190040943561        CCBC                                                                            
D2018030822060520180308220605STJY18697266580741      20180308BEE322685000                                                  00003060000000070900000000000000007100000000000000000000002982020180308201803190030034724        CCKM                                                                            
D2018030822064320180308220643STJY18697266585223      20180308AXC124911000                                                  00004080000000094600000000000000009500000000000000000000003975920180308201803190040937474        CCBC                                                                            
D2018030822070320180308220703STJY18697266588062      20180308AZX620384000                                                  00002040000000047300000000000000004700000000000000000000001988020180308201803190090696250        CCSS                                                                            
D2018030822075720180308220757STJY18697266594629      20180308BFH900759000                                                  00002550000000059100000000000000005900000000000000000000002485020180308201803190040948003        CCBC                                                                            
D2018030822080620180308220806STJY18697266595600      20180308AX7818194000                                                  00003570000000082800000000000000008300000000000000000000003478920180308201803190006238620        CCKE                                                                            
D2018030822081320180308220813STJY18697266596609      20180308BFM524201000                                                  00003570000000082800000000000000008300000000000000000000003478920180308201803190040950381        CCBC                                                                            
D2018030822113020180308221130STJY18697266622357      20180308B77112661000                                                  00001540000000035700000000000000003600000000000000000000001500720180308201803190040965028        CCBC                                                                            
D2018030822120420180308221204STJY18697266626797      20180308BGW200552000                                                  00001530000000035400000000000000003500000000000000000000001491120180308201803190000046902        CCDI                                                                            
D2018030822123120180308221231STJY18697266629989      20180308BEG624201000                                                  00006120000000141900000000000000014200000000000000000000005963920180308201803190030000036        CCNH                                                                            
D2018030822131820180308221318STJY18697266636387      20180308BEP618492000                                                  00005100000000118300000000000000011800000000000000000000004969920180308201803190040970274        CCBC                                                                            
D2018030822145620180308221456STJY18697266650138      20180308BE4600552000                                                  00002040000000047300000000000000004700000000000000000000001988020180308201803190028627688        CCLG                                                                            
D2018030822152220180308221522STJY18697266653630      20180308BI1613309000                                                  00001683000000039000000000000000003900000000000000000000001640120180308201803190000329713        CCDI                                                                            
D2018030822155020180308221550STJY18697266657317      20180308AZE524896000                                                  00003060000000070900000000000000007100000000000000000000002982020180308201803190040983235        CCBC                                                                            
D2018030822161420180308221614STJY18697266660658      20180308BI8908360000                                                  00001530000000035400000000000000003500000000000000000000001491120180308201803190030058049        CCKM                                                                            
